:040000003DEF0EF0D2
:10100000003738392F3435362A3132332D23303DED
:101010002B6B65797061642062746E2070726573E9
:101020007365643D00456D62656464656400576F77
:10103000726C6420210048656C6C6F0025690000AB
:101040003C50D96EDA6ADFCFF6FF100EF76EF86A01
:101050000800F550250AD8A430EF08F032EF08F068
:10106000EDEF08F03C50D96EDA6ADF2A000E5E6EB2
:10107000000E5D6E5DC067F05F6860683C50D96EC1
:10108000DA6ADF50406E40C0F6FF100EF76EF86A65
:101090000800F550640AD8B450EF08F052EF08F099
:1010A00061EF08F040C0F6FF100EF76EF86A080016
:1010B000F550690AD8A45FEF08F061EF08F0E7EF98
:1010C00008F03D50D96EDA6A020EDF26DF5CD96E79
:1010D000DA6ADECF41F0DECF42F03C50D96EDA6AF8
:1010E0004028DF6E200E456E42BE79EF08F07CEF9F
:1010F00008F0010E7DEF08F0000E3F6E45064550EA
:10110000800FD96EDA6A41C031F042C032F0000E71
:10111000346E0A0E336E60EC0BF031C037F032C023
:1011200038F0B1EC0EF03750300FDF6E41C031F0C7
:1011300042C032F0000E346E0A0E336EFEEC0AF03E
:1011400031C041F032C042F041504210D8B4ABEF50
:1011500008F0ADEF08F0B5EF08F04550D8A4B3EFB4
:1011600008F0B5EF08F07EEF08F04550D8B4BBEFBB
:1011700008F0BDEF08F0DCEF08F03F50D8B4C3EF43
:1011800008F0C5EF08F0DCEF08F045064550800F89
:10119000D96EDA6A2D0EDF6EDCEF08F04550800F55
:1011A000D96EDA6ADF503E6E3E50316E326A3BC015
:1011B00033F00FEC0CF0452A200E4518D8A4E3EFCD
:1011C00008F0E5EF08F0CEEF08F0FFEF08F03C5034
:1011D000D96EDA6ADF2AFFEF08F03C50D96EDA6A7E
:1011E000DFCFF6FF100EF76EF86A0800F550316E8B
:1011F000326A3BC033F00FEC0CF0E7EF08F012005E
:10120000010E376E3150D8B408EF09F00AEF09F03B
:101210001AEF09F03150D96EDA6ADF30E832E8327D
:10122000070B326E070E326418EF09F01AEF09F05F
:1012300071EF09F0000E376E91EF09F03150D96E61
:10124000DA6ADF30E832E832070B326E010E336EB5
:10125000322A2DEF09F0D8903336322E2BEF09F0D9
:101260003350FF0A346E3150D96EDA6ADF50070B03
:10127000020DF350150FD96EDA6ADECF35F0DDCFEF
:1012800036F035C0D9FF36C0DAFF3450DF1691EFA3
:1012900009F03150D96EDA6ADF30E832E832070BF4
:1012A000326E010E336E322A58EF09F0D890333681
:1012B000322E56EF09F03150D96EDA6ADF50070B43
:1012C000020DF350150FD96EDA6ADECF34F0DDCFA0
:1012D00035F034C0D9FF35C0DAFF3350DF1291EF5B
:1012E00009F03150D96EDA6ADFBC79EF09F07CEF92
:1012F00009F0010E7DEF09F0000E326E336A3350B3
:10130000000AD8B486EF09F01AEF09F03250000A4B
:10131000D8B41EEF09F0010AD8B449EF09F01AEF6A
:1013200009F037501200010E386E3150D8B49BEFDF
:1013300009F09DEF09F0ADEF09F03150D96EDA6A8E
:10134000DF30E832E832070B336E070E3364ABEF61
:1013500009F0ADEF09F004EF0AF0000E386E19EF56
:101360000AF03150D96EDA6ADF30E832E832070B22
:10137000336E010E346E332AC0EF09F0D890343644
:10138000332EBEEF09F03450FF0A356E3150D96E5E
:10139000DA6ADF50070B020DF3500B0FD96EDA6AD1
:1013A000DECF36F0DDCF37F036C0D9FF37C0DAFFF9
:1013B0003550DF1619EF0AF03150D96EDA6ADF3096
:1013C000E832E832070B336E010E346E332AEBEF4E
:1013D00009F0D8903436332EE9EF09F03150D96E48
:1013E000DA6ADF50070B020DF3500B0FD96EDA6A81
:1013F000DECF35F0DDCF36F035C0D9FF36C0DAFFAD
:101400003450DF1219EF0AF03250336E346A345020
:10141000000AD8B40EEF0AF0ADEF09F03350000A1D
:10142000D8B4B1EF09F0010AD8B4DCEF09F0ADEFA0
:1014300009F038501200000E3F6E000E406E000E94
:101440003E6E000E3D6E000E3C6E3950D8B42BEF50
:101450000AF02DEF0AF035EF0AF03A50D8A433EF36
:101460000AF035EF0AF037EF0AF08EEF0AF0000EBF
:101470003F6E000E3E6E39503E24316E000E326ECD
:1014800093EC09F03E2A030E3E6449EF0AF04BEF5D
:101490000AF03BEF0AF039503F24316E010E326EF4
:1014A00093EC09F0820E3B6EDE0EE82EFED73B2E4B
:1014B000FCD7000E406E39504024040F316E3D0EB3
:1014C000326E64EC0CF03D04D8A469EF0AF06BEFC7
:1014D0000AF07CEF0AF03F50040DF350010F402456
:1014E0003B6E3BC0F6FF100EF76EF86A3A50D96EAD
:1014F000DA6A0800F5CFDFFF402A030E406483EF6D
:101500000AF085EF0AF05BEF0AF03F2A030E3F6412
:101510008CEF0AF08EEF0AF039EF0AF01200000E9D
:10152000466E4350D8A497EF0AF099EF0AF09BEF6C
:101530000AF0FDEF0AF043C039F036EC0DF0456ECD
:101540004328396E36EC0DF0456E000E466E435062
:101550004624020F396E36EC0DF0462A070E46641B
:10156000B4EF0AF0B6EF0AF0A7EF0AF0340E446EBB
:10157000F20EE82EFED7442EFCD743C03FF0380EC3
:10158000406EB7EC0DF00D0E446EFC0EE82EFED74B
:10159000442EFCD743C03FF0380E406EB7EC0DF040
:1015A000640EE82EFED743C03FF0380E406EB7EC15
:1015B0000DF043C03FF0010E406EB7EC0DF043C09C
:1015C0003FF0020E406EB7EC0DF043C03FF0060E48
:1015D000406EB7EC0DF043C03FF00C0E406EB7EC20
:1015E0000DF043C03FF0380E406EB7EC0DF043C035
:1015F0003FF0800E406EB7EC0DF01200000E366E1C
:1016000034BE07EF0BF005EF0BF00DEF0BF0336C72
:10161000341ED8B0342A010E366E32BE14EF0BF0F1
:1016200012EF0BF01AEF0BF0316C321ED8B0322AE9
:10163000010E361A000E386E000E376E335034101D
:10164000D8B425EF0BF027EF0BF04FEF0BF0010EA6
:10165000356E2FEF0BF0D89033363436352A34AE52
:1016600034EF0BF036EF0BF02BEF0BF0D890373652
:1016700038363350315C34503258D8A042EF0BF03A
:1016800044EF0BF049EF0BF03350315E3450325AD7
:101690003780D89034323332352E36EF0BF0365057
:1016A000D8B455EF0BF057EF0BF05BEF0BF0376C46
:1016B000381ED8B0382A37C031F038C032F01200A6
:1016C000000E366E32BE69EF0BF067EF0BF06FEF76
:1016D0000BF0316C321ED8B0322A010E366E34BE99
:1016E00076EF0BF074EF0BF07AEF0BF0336C341EE7
:1016F000D8B0342A33503410D8B481EF0BF083EFD4
:101700000BF0A7EF0BF0010E356E8BEF0BF0D890BE
:1017100033363436352A34AE90EF0BF092EF0BF0BF
:1017200087EF0BF03350315C34503258D8A09BEF28
:101730000BF09DEF0BF0A1EF0BF03350315E345006
:10174000325AD89034323332352E92EF0BF0365075
:10175000D8B4ADEF0BF0AFEF0BF0B3EF0BF0316C93
:10176000321ED8B0322A31C031F032C032F012000D
:1017700017EC0FF01F0E3F6E0F0E406EB7EC0DF022
:10178000686E1F0E3F6E0E0E406EB7EC0DF0686E69
:101790001F0E486E360E496E010E4A6E020E4B6EDB
:1017A0007AEC0EF0686E1F0E486E250E496E020E22
:1017B0004A6E030E4B6E7AEC0EF0686E1F0E486E8A
:1017C0002E0E496E030E4A6E040E4B6E7AEC0EF02E
:1017D000686E1F0E486E110E496E040E4A6E010EA1
:1017E0004B6E7AEC0EF0686E290E396E710E3A6E01
:1017F0001BEC0AF0720E5B6E7150DAEC0DF0686E45
:101800001F0E486E71C049F0040E4A6E140E4B6EE6
:101810005CEC0EF0686EF4EF0BF000EF00F033506C
:10182000D8B415EF0CF017EF0CF01FEF0CF033509D
:10183000D8A41DEF0CF01FEF0CF024EF0CF031508A
:101840001AEC0FF063EF0CF03350D96EDA6A0A0E1F
:10185000D926DE50DE10D8B430EF0CF032EF0CF0A9
:101860004BEF0CF03350D96EDA6A0A0ED92633509A
:10187000E16EE26A030EE126DE50E65CE650800A85
:10188000386EDE50800A3858D8B049EF0CF04BEF74
:101890000CF063EF0CF03350D96EDA6A030ED926E0
:1018A000DF50346E3350D96EDA6ADF503424D96E8B
:1018B000DA6A31C0DFFF3350D96EDA6A030ED926F7
:1018C000DE2A000EDD221200010E376E3150D8B430
:1018D0006CEF0CF06EEF0CF086EF0CF03250D8B4D9
:1018E00074EF0CF076EF0CF086EF0CF03150D96EFF
:1018F000DA6ADF30E832E832070B336E070E336402
:1019000084EF0CF086EF0CF08AEF0CF0000E376ECF
:10191000B4EF0CF03250D96EDA6A3150E16EE26AFF
:10192000E730E832E832070B336E3150E16EE26A9D
:10193000E750070B020DF350010FE16EE26AE6CFAC
:1019400034F0E5CF35F034C0E1FF35C0E2FFE750B9
:10195000366E332AAEEF0CF0D8903632332EACEF21
:101960000CF03650010BDF6E375012004350D8A4F4
:10197000BCEF0CF0BEEF0CF0C0EF0CF004EF0DF07C
:101980004506E7EF0CF043C03FF04550800F406E36
:10199000B7EC0DF004EF0DF043C03FF04550C00F21
:1019A000406EB7EC0DF004EF0DF043C03FF0455032
:1019B000940F406EB7EC0DF004EF0DF043C03FF014
:1019C0004550D40F406EB7EC0DF004EF0DF04450CD
:1019D000466E476A4750000AD8B4F1EF0CF004EFA6
:1019E0000DF04650010AD8B4C3EF0CF0030AD8B486
:1019F000CCEF0CF0010AD8B4D5EF0CF0070AD8B43C
:101A0000DEEF0CF004EF0DF0000E1200000E3D6E44
:101A1000000E3E6E3C50D8A410EF0DF012EF0DF00A
:101A200014EF0DF035EF0DF0000E3D6E3C503D24EF
:101A3000396E36EC0DF03D2A030E3D6422EF0DF0B9
:101A400024EF0DF016EF0DF0000E3E6E3C503E24DC
:101A5000040F316E00EC09F03E2A030E3E6433EFB2
:101A60000DF035EF0DF026EF0DF012003950D8B41F
:101A70003CEF0DF03EEF0DF04EEF0DF03950D96E0A
:101A8000DA6ADF30E832E832070B3A6E070E3A6462
:101A90004CEF0DF04EEF0DF052EF0DF0000E3B6EDF
:101AA00063EF0DF039C031F000EC09F03B6E39C046
:101AB00031F03950D96EDA6A000EDFBE010E326E97
:101AC00093EC09F03B6E3B501200000E446E425006
:101AD000D8A46DEF0DF06FEF0DF081EF0DF0000E5B
:101AE000446E90EF0DF042C03FF043C0F6FF100E81
:101AF000F76EF86A0800F5CF40F0FCEC0DF0446E8C
:101B0000432A43C0F6FF100EF76EF86A0800F5503E
:101B10000009D8A48EEF0DF090EF0DF073EF0DF0EB
:101B200044501200000E3E6E000E3E6E39503E24B0
:101B3000020F316E3EC03BF03AC03CF03B2AA3EFAF
:101B40000DF0D8903C323B2EA1EF0DF03C50010B34
:101B5000326E93EC09F03D6E3E2A070E3E64B3EF01
:101B60000DF0B5EF0DF096EF0DF03D501200000EA8
:101B7000416E3F50D8A4BFEF0DF0C1EF0DF0C5EF9F
:101B80000DF0000E426ED8EF0DF03FC031F0000EA8
:101B9000326E93EC09F0426E3FC039F040C03AF02B
:101BA00092EC0DF0426E3FC039F0FBEC0EF0426E4D
:101BB000425012005C6E5B50D8A4E1EF0DF0E3EFF1
:101BC0000DF0E5EF0DF0FAEF0DF05BC031F0000E17
:101BD000336E000E326E000E356E040E346EE3EC82
:101BE0000EF05BC04AF03C0E4B6E5CC04CF04D6A90
:101BF00097EC0EF0000E12003F50D8A402EF0EF04A
:101C000004EF0EF008EF0EF0000E416E1BEF0EF029
:101C10003FC031F0010E326E93EC09F0416E3FC0CF
:101C200039F040C03AF092EC0DF0416E3FC039F00F
:101C3000FBEC0EF0416E4150120047C049F029EF15
:101C40000EF046C03BF0490E3C6E48C03DF020EC23
:101C500008F049C0F6FF100EF76EF86A0800F5505C
:101C60000009D8A436EF0EF038EF0EF021EF0EF099
:101C7000000E476E000E466E1200960EF66E1D0E9A
:101C8000F76E000EF86E00EE01F010EE30F0090075
:101C9000F5CFEEFFE550E150FAE100EE80F0200EC6
:101CA000EE6AE806FDE100EE5DF0160EEE6AE8066B
:101CB000FDE10001B8EF0BF04850D8A462EF0EF040
:101CC00064EF0EF068EF0EF0000E4C6E78EF0EF041
:101CD00048C043F04AC044F04BC045F0B6EC0CF0AD
:101CE0004C6E48C03FF049C040F0FCEC0DF04C6E2B
:101CF0004C5012004850D8A480EF0EF082EF0EF046
:101D000086EF0EF0000E4C6E95EF0EF048C043F0DB
:101D10004AC044F04BC045F0B6EC0CF048C042F06D
:101D200049C043F065EC0DF04C6E4C5012004C0E67
:101D30004E6E4AC04FF0000E536E000E526E000EF3
:101D40005A6E000E596E4F0E466E4BC047F04E0E47
:101D5000486E1DEC0EF04A505224D96EDA6ADF6AE2
:101D6000120038BEB6EF0EF0B8EF0EF0BEEF0EF078
:101D700037C037F038C038F0CAEF0EF037C039F04E
:101D800038C03AF0391E3A1E394A3A2A39C037F07B
:101D90003AC038F01200800F810F820F830F840F3A
:101DA000890F8A0F8B0F8C0F8D0F920F930F940F4B
:101DB000950F960F0B130109111921293139020AC8
:101DC000121A626A727A31C036F0EDEF0EF03650B8
:101DD000D96EDA6A32C0DFFF362A3406D8A035065B
:101DE000342806E13528D8A4F8EF0EF0FAEF0EF00B
:101DF000E7EF0EF012003928316E010E326E93ECCF
:101E000009F0030EE82EFED700003928316E000ECF
:101E1000326E93EC09F03A6E3A501200290E3C6E85
:101E200006EC0DF01F0E436E8FEC0AF012000EEC64
:061E30000FF01200120089
:020000040020DA
:08000000FFFFFFFFFFFFFFFF00
:020000040030CA
:0E000000FF02091EFF8181FF0FC00FE00F40BD
:00000001FF
